{
  "contractName": "MasterChef",
  "abi": [
    {
      "inputs": [
        {
          "internalType": "contract ShitToken",
          "name": "_Shit",
          "type": "address"
        },
        {
          "internalType": "contract FoamBar",
          "name": "_foam",
          "type": "address"
        },
        {
          "internalType": "address",
          "name": "_devaddr",
          "type": "address"
        },
        {
          "internalType": "uint256",
          "name": "_ShitPerBlock",
          "type": "uint256"
        },
        {
          "internalType": "uint256",
          "name": "_startBlock",
          "type": "uint256"
        },
        {
          "internalType": "uint256",
          "name": "_multiplier",
          "type": "uint256"
        }
      ],
      "stateMutability": "nonpayable",
      "type": "constructor"
    },
    {
      "anonymous": false,
      "inputs": [
        {
          "indexed": true,
          "internalType": "address",
          "name": "user",
          "type": "address"
        },
        {
          "indexed": true,
          "internalType": "uint256",
          "name": "pid",
          "type": "uint256"
        },
        {
          "indexed": false,
          "internalType": "uint256",
          "name": "amount",
          "type": "uint256"
        }
      ],
      "name": "Deposit",
      "type": "event"
    },
    {
      "anonymous": false,
      "inputs": [
        {
          "indexed": true,
          "internalType": "address",
          "name": "user",
          "type": "address"
        },
        {
          "indexed": true,
          "internalType": "uint256",
          "name": "pid",
          "type": "uint256"
        },
        {
          "indexed": false,
          "internalType": "uint256",
          "name": "amount",
          "type": "uint256"
        }
      ],
      "name": "EmergencyWithdraw",
      "type": "event"
    },
    {
      "anonymous": false,
      "inputs": [
        {
          "indexed": true,
          "internalType": "address",
          "name": "previousOwner",
          "type": "address"
        },
        {
          "indexed": true,
          "internalType": "address",
          "name": "newOwner",
          "type": "address"
        }
      ],
      "name": "OwnershipTransferred",
      "type": "event"
    },
    {
      "anonymous": false,
      "inputs": [
        {
          "indexed": true,
          "internalType": "address",
          "name": "user",
          "type": "address"
        },
        {
          "indexed": true,
          "internalType": "uint256",
          "name": "pid",
          "type": "uint256"
        },
        {
          "indexed": false,
          "internalType": "uint256",
          "name": "amount",
          "type": "uint256"
        }
      ],
      "name": "Withdraw",
      "type": "event"
    },
    {
      "inputs": [],
      "name": "BONUS_MULTIPLIER",
      "outputs": [
        {
          "internalType": "uint256",
          "name": "",
          "type": "uint256"
        }
      ],
      "stateMutability": "view",
      "type": "function"
    },
    {
      "inputs": [],
      "name": "Shit",
      "outputs": [
        {
          "internalType": "contract ShitToken",
          "name": "",
          "type": "address"
        }
      ],
      "stateMutability": "view",
      "type": "function"
    },
    {
      "inputs": [],
      "name": "ShitPerBlock",
      "outputs": [
        {
          "internalType": "uint256",
          "name": "",
          "type": "uint256"
        }
      ],
      "stateMutability": "view",
      "type": "function"
    },
    {
      "inputs": [],
      "name": "devaddr",
      "outputs": [
        {
          "internalType": "address",
          "name": "",
          "type": "address"
        }
      ],
      "stateMutability": "view",
      "type": "function"
    },
    {
      "inputs": [],
      "name": "foam",
      "outputs": [
        {
          "internalType": "contract FoamBar",
          "name": "",
          "type": "address"
        }
      ],
      "stateMutability": "view",
      "type": "function"
    },
    {
      "inputs": [],
      "name": "owner",
      "outputs": [
        {
          "internalType": "address",
          "name": "",
          "type": "address"
        }
      ],
      "stateMutability": "view",
      "type": "function"
    },
    {
      "inputs": [
        {
          "internalType": "uint256",
          "name": "",
          "type": "uint256"
        }
      ],
      "name": "poolInfo",
      "outputs": [
        {
          "internalType": "contract IBEP20",
          "name": "lpToken",
          "type": "address"
        },
        {
          "internalType": "uint256",
          "name": "allocPoint",
          "type": "uint256"
        },
        {
          "internalType": "uint256",
          "name": "lastRewardBlock",
          "type": "uint256"
        },
        {
          "internalType": "uint256",
          "name": "accShitPerShare",
          "type": "uint256"
        }
      ],
      "stateMutability": "view",
      "type": "function"
    },
    {
      "inputs": [],
      "name": "renounceOwnership",
      "outputs": [],
      "stateMutability": "nonpayable",
      "type": "function"
    },
    {
      "inputs": [],
      "name": "startBlock",
      "outputs": [
        {
          "internalType": "uint256",
          "name": "",
          "type": "uint256"
        }
      ],
      "stateMutability": "view",
      "type": "function"
    },
    {
      "inputs": [],
      "name": "totalAllocPoint",
      "outputs": [
        {
          "internalType": "uint256",
          "name": "",
          "type": "uint256"
        }
      ],
      "stateMutability": "view",
      "type": "function"
    },
    {
      "inputs": [
        {
          "internalType": "address",
          "name": "newOwner",
          "type": "address"
        }
      ],
      "name": "transferOwnership",
      "outputs": [],
      "stateMutability": "nonpayable",
      "type": "function"
    },
    {
      "inputs": [
        {
          "internalType": "uint256",
          "name": "",
          "type": "uint256"
        },
        {
          "internalType": "address",
          "name": "",
          "type": "address"
        }
      ],
      "name": "userInfo",
      "outputs": [
        {
          "internalType": "uint256",
          "name": "amount",
          "type": "uint256"
        },
        {
          "internalType": "uint256",
          "name": "rewardDebt",
          "type": "uint256"
        }
      ],
      "stateMutability": "view",
      "type": "function"
    },
    {
      "inputs": [
        {
          "internalType": "uint256",
          "name": "multiplierNumber",
          "type": "uint256"
        }
      ],
      "name": "updateMultiplier",
      "outputs": [],
      "stateMutability": "nonpayable",
      "type": "function"
    },
    {
      "inputs": [],
      "name": "poolLength",
      "outputs": [
        {
          "internalType": "uint256",
          "name": "",
          "type": "uint256"
        }
      ],
      "stateMutability": "view",
      "type": "function"
    },
    {
      "inputs": [
        {
          "internalType": "uint256",
          "name": "_allocPoint",
          "type": "uint256"
        },
        {
          "internalType": "contract IBEP20",
          "name": "_lpToken",
          "type": "address"
        },
        {
          "internalType": "bool",
          "name": "_withUpdate",
          "type": "bool"
        }
      ],
      "name": "add",
      "outputs": [],
      "stateMutability": "nonpayable",
      "type": "function"
    },
    {
      "inputs": [
        {
          "internalType": "uint256",
          "name": "_pid",
          "type": "uint256"
        },
        {
          "internalType": "uint256",
          "name": "_allocPoint",
          "type": "uint256"
        },
        {
          "internalType": "bool",
          "name": "_withUpdate",
          "type": "bool"
        }
      ],
      "name": "set",
      "outputs": [],
      "stateMutability": "nonpayable",
      "type": "function"
    },
    {
      "inputs": [
        {
          "internalType": "uint256",
          "name": "_from",
          "type": "uint256"
        },
        {
          "internalType": "uint256",
          "name": "_to",
          "type": "uint256"
        }
      ],
      "name": "getMultiplier",
      "outputs": [
        {
          "internalType": "uint256",
          "name": "",
          "type": "uint256"
        }
      ],
      "stateMutability": "view",
      "type": "function"
    },
    {
      "inputs": [
        {
          "internalType": "uint256",
          "name": "_pid",
          "type": "uint256"
        },
        {
          "internalType": "address",
          "name": "_user",
          "type": "address"
        }
      ],
      "name": "pendingShit",
      "outputs": [
        {
          "internalType": "uint256",
          "name": "",
          "type": "uint256"
        }
      ],
      "stateMutability": "view",
      "type": "function"
    },
    {
      "inputs": [],
      "name": "massUpdatePools",
      "outputs": [],
      "stateMutability": "nonpayable",
      "type": "function"
    },
    {
      "inputs": [
        {
          "internalType": "uint256",
          "name": "_pid",
          "type": "uint256"
        }
      ],
      "name": "updatePool",
      "outputs": [],
      "stateMutability": "nonpayable",
      "type": "function"
    },
    {
      "inputs": [
        {
          "internalType": "uint256",
          "name": "_pid",
          "type": "uint256"
        },
        {
          "internalType": "uint256",
          "name": "_amount",
          "type": "uint256"
        }
      ],
      "name": "deposit",
      "outputs": [],
      "stateMutability": "nonpayable",
      "type": "function"
    },
    {
      "inputs": [
        {
          "internalType": "uint256",
          "name": "_pid",
          "type": "uint256"
        },
        {
          "internalType": "uint256",
          "name": "_amount",
          "type": "uint256"
        }
      ],
      "name": "withdraw",
      "outputs": [],
      "stateMutability": "nonpayable",
      "type": "function"
    },
    {
      "inputs": [
        {
          "internalType": "uint256",
          "name": "_amount",
          "type": "uint256"
        }
      ],
      "name": "enterStaking",
      "outputs": [],
      "stateMutability": "nonpayable",
      "type": "function"
    },
    {
      "inputs": [
        {
          "internalType": "uint256",
          "name": "_amount",
          "type": "uint256"
        }
      ],
      "name": "leaveStaking",
      "outputs": [],
      "stateMutability": "nonpayable",
      "type": "function"
    },
    {
      "inputs": [
        {
          "internalType": "uint256",
          "name": "_pid",
          "type": "uint256"
        }
      ],
      "name": "emergencyWithdraw",
      "outputs": [],
      "stateMutability": "nonpayable",
      "type": "function"
    },
    {
      "inputs": [
        {
          "internalType": "address",
          "name": "_devaddr",
          "type": "address"
        }
      ],
      "name": "dev",
      "outputs": [],
      "stateMutability": "nonpayable",
      "type": "function"
    }
  ],
  "bytecode": "0x6080604052600060085534801561001557600080fd5b50604051611e44380380611e44833981810160405260c081101561003857600080fd5b508051602082015160408301516060840151608085015160a090950151939492939192909160006100676101e7565b600080546001600160a01b0319166001600160a01b0383169081178255604051929350917f8be0079c531659141344cd1fd0a4f28419497f9722a3daafe3b4186f6b6457e0908290a350600180546001600160a01b03199081166001600160a01b039889169081178355600280548316988a16989098179097556003805482169689169690961790955560049384556009839055600591909155604080516080810182529586526103e86020870181815291870193845260006060880181815260068054958601815590915296517ff652222313e28459528d920b65115c16c04f3efc82aaedc97be59f3f377c0d3f939095029283018054909616949097169390931790935590517ff652222313e28459528d920b65115c16c04f3efc82aaedc97be59f3f377c0d40830155517ff652222313e28459528d920b65115c16c04f3efc82aaedc97be59f3f377c0d4182015590517ff652222313e28459528d920b65115c16c04f3efc82aaedc97be59f3f377c0d42909101556008556101eb565b3390565b611c4a806101fa6000396000f3fe608060405234801561001057600080fd5b506004361061018e5760003560e01c8063630b5ba1116100de5780638da5cb5b11610097578063d49e77cd11610071578063d49e77cd14610425578063e2bbb1581461042d578063e971e44014610450578063f2fde38b146104585761018e565b80638da5cb5b146103b55780638dbb1e3a146103bd57806393f1a40b146103e05761018e565b8063630b5ba11461034457806364482f791461034c578063715018a6146103775780638460b29e1461037f5780638aa28550146103875780638d88a90e1461038f5761018e565b806341441d3b1161014b57806348cd4cb11161012557806348cd4cb1146102e557806351eb05a6146102ed5780635312ea8e1461030a5780635ffe6146146103275761018e565b806341441d3b14610279578063441a3e701461029657806344c5ecf4146102b95761018e565b8063081e3eda146101935780630ac6b5a1146101ad5780631058d281146101d15780631526fe27146101f057806317caf6f11461023d5780631eaaa04514610245575b600080fd5b61019b61047e565b60408051918252519081900360200190f35b6101b5610484565b604080516001600160a01b039092168252519081900360200190f35b6101ee600480360360208110156101e757600080fd5b5035610493565b005b61020d6004803603602081101561020657600080fd5b5035610677565b604080516001600160a01b0390951685526020850193909352838301919091526060830152519081900360800190f35b61019b6106b8565b6101ee6004803603606081101561025b57600080fd5b508035906001600160a01b03602082013516906040013515156106be565b6101ee6004803603602081101561028f57600080fd5b5035610844565b6101ee600480360360408110156102ac57600080fd5b50803590602001356109d8565b61019b600480360360408110156102cf57600080fd5b50803590602001356001600160a01b0316610b7d565b61019b610ce7565b6101ee6004803603602081101561030357600080fd5b5035610ced565b6101ee6004803603602081101561032057600080fd5b5035610f13565b6101ee6004803603602081101561033d57600080fd5b5035610fae565b6101ee61100b565b6101ee6004803603606081101561036257600080fd5b5080359060208101359060400135151561102e565b6101ee61110b565b61019b6111ad565b61019b6111b3565b6101ee600480360360208110156103a557600080fd5b50356001600160a01b03166111b9565b6101b5611226565b61019b600480360360408110156103d357600080fd5b5080359060200135611235565b61040c600480360360408110156103f657600080fd5b50803590602001356001600160a01b0316611250565b6040805192835260208301919091528051918290030190f35b6101b5611274565b6101ee6004803603604081101561044357600080fd5b5080359060200135611283565b6101b56113e7565b6101ee6004803603602081101561046e57600080fd5b50356001600160a01b03166113f6565b60065490565b6002546001600160a01b031681565b600060066000815481106104a357fe5b600091825260208083203384527f6d5257204ebe7d88fd91ae87941cb2dd9d8062b64ae5a2bd2d28ec40b9fbf6df909152604090922080546004909202909201925083111561052e576040805162461bcd60e51b81526020600482015260126024820152711dda5d1a191c985dce881b9bdd0819dbdbd960721b604482015290519081900360640190fd5b6105386000610ced565b6000610572826001015461056c64e8d4a510006105668760030154876000015461145790919063ffffffff16565b906114b0565b906114f2565b90508015610584576105843382611534565b83156105ae57815461059690856114f2565b825582546105ae906001600160a01b031633866115a5565b600383015482546105c99164e8d4a510009161056691611457565b600183015560025460408051632770a7eb60e21b81523360048201526024810187905290516001600160a01b0390921691639dc29fac9160448082019260009290919082900301818387803b15801561062157600080fd5b505af1158015610635573d6000803e3d6000fd5b5050604080518781529051600093503392507ff279e6a1f5e320cca91135676d9cb6e44ca8a08c0b88342bcdb1144f6511b5689181900360200190a350505050565b6006818154811061068457fe5b600091825260209091206004909102018054600182015460028301546003909301546001600160a01b039092169350919084565b60085481565b6106c66115fc565b6000546001600160a01b03908116911614610716576040805162461bcd60e51b81526020600482018190526024820152600080516020611bf5833981519152604482015290519081900360640190fd5b80156107245761072461100b565b6000600954431161073757600954610739565b435b6008549091506107499085611600565b600855604080516080810182526001600160a01b0385811682526020820187815292820184815260006060840181815260068054600181018255925293517ff652222313e28459528d920b65115c16c04f3efc82aaedc97be59f3f377c0d3f600490920291820180546001600160a01b031916919094161790925592517ff652222313e28459528d920b65115c16c04f3efc82aaedc97be59f3f377c0d4082015591517ff652222313e28459528d920b65115c16c04f3efc82aaedc97be59f3f377c0d41830155517ff652222313e28459528d920b65115c16c04f3efc82aaedc97be59f3f377c0d429091015561083e61165a565b50505050565b6000600660008154811061085457fe5b600091825260208083203384527f6d5257204ebe7d88fd91ae87941cb2dd9d8062b64ae5a2bd2d28ec40b9fbf6df9091526040832060049092020192509061089b90610ced565b8054156108e45760006108d0826001015461056c64e8d4a510006105668760030154876000015461145790919063ffffffff16565b905080156108e2576108e23382611534565b505b8215610910578154610901906001600160a01b031633308661171f565b805461090d9084611600565b81555b6003820154815461092b9164e8d4a510009161056691611457565b6001820155600254604080516340c10f1960e01b81523360048201526024810186905290516001600160a01b03909216916340c10f199160448082019260009290919082900301818387803b15801561098357600080fd5b505af1158015610997573d6000803e3d6000fd5b5050604080518681529051600093503392507f90890809c654f11d6e72a28fa60149770a0d11ec6c92319d6ceb2bb0a4ea1a159181900360200190a3505050565b81610a2a576040805162461bcd60e51b815260206004820152601a60248201527f7769746864726177205368697420627920756e7374616b696e67000000000000604482015290519081900360640190fd5b600060068381548110610a3957fe5b600091825260208083208684526007825260408085203386529092529220805460049092029092019250831115610aac576040805162461bcd60e51b81526020600482015260126024820152711dda5d1a191c985dce881b9bdd0819dbdbd960721b604482015290519081900360640190fd5b610ab584610ced565b6000610ae3826001015461056c64e8d4a510006105668760030154876000015461145790919063ffffffff16565b90508015610af557610af53382611534565b8315610b1f578154610b0790856114f2565b82558254610b1f906001600160a01b031633866115a5565b60038301548254610b3a9164e8d4a510009161056691611457565b6001830155604080518581529051869133917ff279e6a1f5e320cca91135676d9cb6e44ca8a08c0b88342bcdb1144f6511b5689181900360200190a35050505050565b60008060068481548110610b8d57fe5b600091825260208083208784526007825260408085206001600160a01b03898116875290845281862060049586029093016003810154815484516370a0823160e01b81523098810198909852935191985093969395939492909116926370a08231926024808301939192829003018186803b158015610c0b57600080fd5b505afa158015610c1f573d6000803e3d6000fd5b505050506040513d6020811015610c3557600080fd5b5051600285015490915043118015610c4c57508015155b15610cb2576000610c61856002015443611235565b90506000610c8e6008546105668860010154610c886004548761145790919063ffffffff16565b90611457565b9050610cad610ca6846105668464e8d4a51000611457565b8590611600565b935050505b610cda836001015461056c64e8d4a5100061056686886000015461145790919063ffffffff16565b9450505050505b92915050565b60095481565b600060068281548110610cfc57fe5b9060005260206000209060040201905080600201544311610d1d5750610f10565b8054604080516370a0823160e01b815230600482015290516000926001600160a01b0316916370a08231916024808301926020929190829003018186803b158015610d6757600080fd5b505afa158015610d7b573d6000803e3d6000fd5b505050506040513d6020811015610d9157600080fd5b5051905080610da7575043600290910155610f10565b6000610db7836002015443611235565b90506000610dde6008546105668660010154610c886004548761145790919063ffffffff16565b6001546003549192506001600160a01b03908116916340c10f199116610e0584600a6114b0565b6040518363ffffffff1660e01b815260040180836001600160a01b0316815260200182815260200192505050600060405180830381600087803b158015610e4b57600080fd5b505af1158015610e5f573d6000803e3d6000fd5b5050600154600254604080516340c10f1960e01b81526001600160a01b0392831660048201526024810187905290519190921693506340c10f199250604480830192600092919082900301818387803b158015610ebb57600080fd5b505af1158015610ecf573d6000803e3d6000fd5b50505050610efd610ef28461056664e8d4a510008561145790919063ffffffff16565b600386015490611600565b6003850155505043600290920191909155505b50565b600060068281548110610f2257fe5b60009182526020808320858452600782526040808520338087529352909320805460049093029093018054909450610f67926001600160a01b039190911691906115a5565b80546040805191825251849133917fbb757047c2b5f3974fe26b7c10f732e7bce710b0952a71082702781e62ae05959181900360200190a360008082556001909101555050565b610fb66115fc565b6000546001600160a01b03908116911614611006576040805162461bcd60e51b81526020600482018190526024820152600080516020611bf5833981519152604482015290519081900360640190fd5b600555565b60065460005b8181101561102a5761102281610ced565b600101611011565b5050565b6110366115fc565b6000546001600160a01b03908116911614611086576040805162461bcd60e51b81526020600482018190526024820152600080516020611bf5833981519152604482015290519081900360640190fd5b80156110945761109461100b565b6000600684815481106110a357fe5b906000526020600020906004020160010154905082600685815481106110c557fe5b90600052602060002090600402016001018190555082811461083e57611100836110fa836008546114f290919063ffffffff16565b90611600565b60085561083e61165a565b6111136115fc565b6000546001600160a01b03908116911614611163576040805162461bcd60e51b81526020600482018190526024820152600080516020611bf5833981519152604482015290519081900360640190fd5b600080546040516001600160a01b03909116907f8be0079c531659141344cd1fd0a4f28419497f9722a3daafe3b4186f6b6457e0908390a3600080546001600160a01b0319169055565b60045481565b60055481565b6003546001600160a01b03163314611204576040805162461bcd60e51b81526020600482015260096024820152686465763a207775743f60b81b604482015290519081900360640190fd5b600380546001600160a01b0319166001600160a01b0392909216919091179055565b6000546001600160a01b031690565b60055460009061124990610c8884866114f2565b9392505050565b60076020908152600092835260408084209091529082529020805460019091015482565b6003546001600160a01b031681565b816112d5576040805162461bcd60e51b815260206004820152601760248201527f6465706f7369742053686974206279207374616b696e67000000000000000000604482015290519081900360640190fd5b6000600683815481106112e457fe5b6000918252602080832086845260078252604080852033865290925292206004909102909101915061131584610ced565b80541561135e57600061134a826001015461056c64e8d4a510006105668760030154876000015461145790919063ffffffff16565b9050801561135c5761135c3382611534565b505b821561138a57815461137b906001600160a01b031633308661171f565b80546113879084611600565b81555b600382015481546113a59164e8d4a510009161056691611457565b6001820155604080518481529051859133917f90890809c654f11d6e72a28fa60149770a0d11ec6c92319d6ceb2bb0a4ea1a159181900360200190a350505050565b6001546001600160a01b031681565b6113fe6115fc565b6000546001600160a01b0390811691161461144e576040805162461bcd60e51b81526020600482018190526024820152600080516020611bf5833981519152604482015290519081900360640190fd5b610f1081611779565b60008261146657506000610ce1565b8282028284828161147357fe5b04146112495760405162461bcd60e51b8152600401808060200182810382526021815260200180611bd46021913960400191505060405180910390fd5b600061124983836040518060400160405280601a81526020017f536166654d6174683a206469766973696f6e206279207a65726f000000000000815250611819565b600061124983836040518060400160405280601e81526020017f536166654d6174683a207375627472616374696f6e206f766572666c6f7700008152506118bb565b6002546040805163ca7c11df60e01b81526001600160a01b038581166004830152602482018590529151919092169163ca7c11df91604480830192600092919082900301818387803b15801561158957600080fd5b505af115801561159d573d6000803e3d6000fd5b505050505050565b604080516001600160a01b038416602482015260448082018490528251808303909101815260649091019091526020810180516001600160e01b031663a9059cbb60e01b1790526115f7908490611915565b505050565b3390565b600082820183811015611249576040805162461bcd60e51b815260206004820152601b60248201527f536166654d6174683a206164646974696f6e206f766572666c6f770000000000604482015290519081900360640190fd5b600654600060015b828110156116a55761169b6006828154811061167a57fe5b9060005260206000209060040201600101548361160090919063ffffffff16565b9150600101611662565b50801561102a576116b78160036114b0565b90506116f1816110fa60066000815481106116ce57fe5b9060005260206000209060040201600101546008546114f290919063ffffffff16565b60088190555080600660008154811061170657fe5b9060005260206000209060040201600101819055505050565b604080516001600160a01b0380861660248301528416604482015260648082018490528251808303909101815260849091019091526020810180516001600160e01b03166323b872dd60e01b17905261083e908590611915565b6001600160a01b0381166117be5760405162461bcd60e51b8152600401808060200182810382526026815260200180611bae6026913960400191505060405180910390fd5b600080546040516001600160a01b03808516939216917f8be0079c531659141344cd1fd0a4f28419497f9722a3daafe3b4186f6b6457e091a3600080546001600160a01b0319166001600160a01b0392909216919091179055565b600081836118a55760405162461bcd60e51b81526004018080602001828103825283818151815260200191508051906020019080838360005b8381101561186a578181015183820152602001611852565b50505050905090810190601f1680156118975780820380516001836020036101000a031916815260200191505b509250505060405180910390fd5b5060008385816118b157fe5b0495945050505050565b6000818484111561190d5760405162461bcd60e51b815260206004820181815283516024840152835190928392604490910191908501908083836000831561186a578181015183820152602001611852565b505050900390565b606061196a826040518060400160405280602081526020017f5361666542455032303a206c6f772d6c6576656c2063616c6c206661696c6564815250856001600160a01b03166119c69092919063ffffffff16565b8051909150156115f75780806020019051602081101561198957600080fd5b50516115f75760405162461bcd60e51b815260040180806020018281038252602a815260200180611b84602a913960400191505060405180910390fd5b60606119d584846000856119dd565b949350505050565b60606119e885611b4a565b611a39576040805162461bcd60e51b815260206004820152601d60248201527f416464726573733a2063616c6c20746f206e6f6e2d636f6e7472616374000000604482015290519081900360640190fd5b60006060866001600160a01b031685876040518082805190602001908083835b60208310611a785780518252601f199092019160209182019101611a59565b6001836020036101000a03801982511681845116808217855250505050505090500191505060006040518083038185875af1925050503d8060008114611ada576040519150601f19603f3d011682016040523d82523d6000602084013e611adf565b606091505b50915091508115611af35791506119d59050565b805115611b035780518082602001fd5b60405162461bcd60e51b815260206004820181815286516024840152865187939192839260440191908501908083836000831561186a578181015183820152602001611852565b6000813f7fc5d2460186f7233c927e7db2dcc703c0e500b653ca82273b7bfad8045d85a4708181148015906119d557505015159291505056fe5361666542455032303a204245503230206f7065726174696f6e20646964206e6f7420737563636565644f776e61626c653a206e6577206f776e657220697320746865207a65726f2061646472657373536166654d6174683a206d756c7469706c69636174696f6e206f766572666c6f774f776e61626c653a2063616c6c6572206973206e6f7420746865206f776e6572a2646970667358221220aea06d9e912e3812166ded732aca8eed896033497c27e55d7e222232bedddd9f64736f6c634300060c0033",
  "immutableReferences": {},
  "source": "pragma solidity 0.6.12;\n\nimport '@pancakeswap/pancake-swap-lib/contracts/math/SafeMath.sol';\nimport '@pancakeswap/pancake-swap-lib/contracts/token/BEP20/IBEP20.sol';\nimport '@pancakeswap/pancake-swap-lib/contracts/token/BEP20/SafeBEP20.sol';\nimport '@pancakeswap/pancake-swap-lib/contracts/access/Ownable.sol';\n\nimport \"./ShitToken.sol\";\nimport \"./FoamBar.sol\";\n\n// import \"@nomiclabs/buidler/console.sol\";\n\n// MasterChef is the master of Shit. He can make Shit and he is a fair guy.\n//\n// Note that it's ownable and the owner wields tremendous power. The ownership\n// will be transferred to a governance smart contract once Shit is sufficiently\n// distributed and the community can show to govern itself.\n//\n// Have fun reading it. Hopefully it's bug-free. God bless.\ncontract MasterChef is Ownable {\n    using SafeMath for uint256;\n    using SafeBEP20 for IBEP20;\n\n    // Info of each user.\n    struct UserInfo {\n        uint256 amount;     // How many LP tokens the user has provided.\n        uint256 rewardDebt; // Reward debt. See explanation below.\n        //\n        // We do some fancy math here. Basically, any point in time, the amount of Shits\n        // entitled to a user but is pending to be distributed is:\n        //\n        //   pending reward = (user.amount * pool.accShitPerShare) - user.rewardDebt\n        //\n        // Whenever a user deposits or withdraws LP tokens to a pool. Here's what happens:\n        //   1. The pool's `accShitPerShare` (and `lastRewardBlock`) gets updated.\n        //   2. User receives the pending reward sent to his/her address.\n        //   3. User's `amount` gets updated.\n        //   4. User's `rewardDebt` gets updated.\n    }\n\n    // Info of each pool.\n    struct PoolInfo {\n        IBEP20 lpToken;           // Address of LP token contract.\n        uint256 allocPoint;       // How many allocation points assigned to this pool. Shits to distribute per block.\n        uint256 lastRewardBlock;  // Last block number that Shits distribution occurs.\n        uint256 accShitPerShare; // Accumulated Shits per share, times 1e12. See below.\n    }\n\n    // The Shit TOKEN!\n    ShitToken public Shit;\n    // The FOAM TOKEN!\n    FoamBar public foam;\n    // Dev address.\n    address public devaddr;\n    // Shit tokens created per block.\n    uint256 public ShitPerBlock;\n    // Bonus muliplier for early Shit makers.\n    uint256 public BONUS_MULTIPLIER;\n\n    // Info of each pool.\n    PoolInfo[] public poolInfo;\n    // Info of each user that stakes LP tokens.\n    mapping (uint256 => mapping (address => UserInfo)) public userInfo;\n    // Total allocation points. Must be the sum of all allocation points in all pools.\n    uint256 public totalAllocPoint = 0;\n    // The block number when Shit mining starts.\n    uint256 public startBlock;\n\n    event Deposit(address indexed user, uint256 indexed pid, uint256 amount);\n    event Withdraw(address indexed user, uint256 indexed pid, uint256 amount);\n    event EmergencyWithdraw(address indexed user, uint256 indexed pid, uint256 amount);\n\n    constructor(\n        ShitToken _Shit,\n        FoamBar _foam,\n        address _devaddr,\n        uint256 _ShitPerBlock,\n        uint256 _startBlock,\n        uint256 _multiplier\n    ) public {\n        Shit = _Shit;\n        foam = _foam;\n        devaddr = _devaddr;\n        ShitPerBlock = _ShitPerBlock;\n        startBlock = _startBlock;\n        BONUS_MULTIPLIER = _multiplier;\n\n        // staking pool\n        poolInfo.push(PoolInfo({\n            lpToken: _Shit,\n            allocPoint: 1000,\n            lastRewardBlock: startBlock,\n            accShitPerShare: 0\n        }));\n\n        totalAllocPoint = 1000;\n\n    }\n\n    function updateMultiplier(uint256 multiplierNumber) public onlyOwner {\n        BONUS_MULTIPLIER = multiplierNumber;\n    }\n\n    function poolLength() external view returns (uint256) {\n        return poolInfo.length;\n    }\n\n    // Add a new lp to the pool. Can only be called by the owner.\n    // XXX DO NOT add the same LP token more than once. Rewards will be messed up if you do.\n    function add(uint256 _allocPoint, IBEP20 _lpToken, bool _withUpdate) public onlyOwner {\n        if (_withUpdate) {\n            massUpdatePools();\n        }\n        uint256 lastRewardBlock = block.number > startBlock ? block.number : startBlock;\n        totalAllocPoint = totalAllocPoint.add(_allocPoint);\n        poolInfo.push(PoolInfo({\n            lpToken: _lpToken,\n            allocPoint: _allocPoint,\n            lastRewardBlock: lastRewardBlock,\n            accShitPerShare: 0\n        }));\n        updateStakingPool();\n    }\n\n    // Update the given pool's Shit allocation point. Can only be called by the owner.\n    function set(uint256 _pid, uint256 _allocPoint, bool _withUpdate) public onlyOwner {\n        if (_withUpdate) {\n            massUpdatePools();\n        }\n        uint256 prevAllocPoint = poolInfo[_pid].allocPoint;\n        poolInfo[_pid].allocPoint = _allocPoint;\n        if (prevAllocPoint != _allocPoint) {\n            totalAllocPoint = totalAllocPoint.sub(prevAllocPoint).add(_allocPoint);\n            updateStakingPool();\n        }\n    }\n\n    function updateStakingPool() internal {\n        uint256 length = poolInfo.length;\n        uint256 points = 0;\n        for (uint256 pid = 1; pid < length; ++pid) {\n            points = points.add(poolInfo[pid].allocPoint);\n        }\n        if (points != 0) {\n            points = points.div(3);\n            totalAllocPoint = totalAllocPoint.sub(poolInfo[0].allocPoint).add(points);\n            poolInfo[0].allocPoint = points;\n        }\n    }\n\n    // Return reward multiplier over the given _from to _to block.\n    function getMultiplier(uint256 _from, uint256 _to) public view returns (uint256) {\n        return _to.sub(_from).mul(BONUS_MULTIPLIER);\n    }\n\n    // View function to see pending Shits on frontend.\n    function pendingShit(uint256 _pid, address _user) external view returns (uint256) {\n        PoolInfo storage pool = poolInfo[_pid];\n        UserInfo storage user = userInfo[_pid][_user];\n        uint256 accShitPerShare = pool.accShitPerShare;\n        uint256 lpSupply = pool.lpToken.balanceOf(address(this));\n        if (block.number > pool.lastRewardBlock && lpSupply != 0) {\n            uint256 multiplier = getMultiplier(pool.lastRewardBlock, block.number);\n            uint256 ShitReward = multiplier.mul(ShitPerBlock).mul(pool.allocPoint).div(totalAllocPoint);\n            accShitPerShare = accShitPerShare.add(ShitReward.mul(1e12).div(lpSupply));\n        }\n        return user.amount.mul(accShitPerShare).div(1e12).sub(user.rewardDebt);\n    }\n\n    // Update reward variables for all pools. Be careful of gas spending!\n    function massUpdatePools() public {\n        uint256 length = poolInfo.length;\n        for (uint256 pid = 0; pid < length; ++pid) {\n            updatePool(pid);\n        }\n    }\n\n\n    // Update reward variables of the given pool to be up-to-date.\n    function updatePool(uint256 _pid) public {\n        PoolInfo storage pool = poolInfo[_pid];\n        if (block.number <= pool.lastRewardBlock) {\n            return;\n        }\n        uint256 lpSupply = pool.lpToken.balanceOf(address(this));\n        if (lpSupply == 0) {\n            pool.lastRewardBlock = block.number;\n            return;\n        }\n        uint256 multiplier = getMultiplier(pool.lastRewardBlock, block.number);\n        uint256 ShitReward = multiplier.mul(ShitPerBlock).mul(pool.allocPoint).div(totalAllocPoint);\n        Shit.mint(devaddr, ShitReward.div(10));\n        Shit.mint(address(foam), ShitReward);\n        pool.accShitPerShare = pool.accShitPerShare.add(ShitReward.mul(1e12).div(lpSupply));\n        pool.lastRewardBlock = block.number;\n    }\n\n    // Deposit LP tokens to MasterChef for Shit allocation.\n    function deposit(uint256 _pid, uint256 _amount) public {\n\n        require (_pid != 0, 'deposit Shit by staking');\n\n        PoolInfo storage pool = poolInfo[_pid];\n        UserInfo storage user = userInfo[_pid][msg.sender];\n        updatePool(_pid);\n        if (user.amount > 0) {\n            uint256 pending = user.amount.mul(pool.accShitPerShare).div(1e12).sub(user.rewardDebt);\n            if(pending > 0) {\n                safeShitTransfer(msg.sender, pending);\n            }\n        }\n        if (_amount > 0) {\n            pool.lpToken.safeTransferFrom(address(msg.sender), address(this), _amount);\n            user.amount = user.amount.add(_amount);\n        }\n        user.rewardDebt = user.amount.mul(pool.accShitPerShare).div(1e12);\n        emit Deposit(msg.sender, _pid, _amount);\n    }\n\n    // Withdraw LP tokens from MasterChef.\n    function withdraw(uint256 _pid, uint256 _amount) public {\n\n        require (_pid != 0, 'withdraw Shit by unstaking');\n        PoolInfo storage pool = poolInfo[_pid];\n        UserInfo storage user = userInfo[_pid][msg.sender];\n        require(user.amount >= _amount, \"withdraw: not good\");\n\n        updatePool(_pid);\n        uint256 pending = user.amount.mul(pool.accShitPerShare).div(1e12).sub(user.rewardDebt);\n        if(pending > 0) {\n            safeShitTransfer(msg.sender, pending);\n        }\n        if(_amount > 0) {\n            user.amount = user.amount.sub(_amount);\n            pool.lpToken.safeTransfer(address(msg.sender), _amount);\n        }\n        user.rewardDebt = user.amount.mul(pool.accShitPerShare).div(1e12);\n        emit Withdraw(msg.sender, _pid, _amount);\n    }\n\n    // Stake Shit tokens to MasterChef\n    function enterStaking(uint256 _amount) public {\n        PoolInfo storage pool = poolInfo[0];\n        UserInfo storage user = userInfo[0][msg.sender];\n        updatePool(0);\n        if (user.amount > 0) {\n            uint256 pending = user.amount.mul(pool.accShitPerShare).div(1e12).sub(user.rewardDebt);\n            if(pending > 0) {\n                safeShitTransfer(msg.sender, pending);\n            }\n        }\n        if(_amount > 0) {\n            pool.lpToken.safeTransferFrom(address(msg.sender), address(this), _amount);\n            user.amount = user.amount.add(_amount);\n        }\n        user.rewardDebt = user.amount.mul(pool.accShitPerShare).div(1e12);\n\n        foam.mint(msg.sender, _amount);\n        emit Deposit(msg.sender, 0, _amount);\n    }\n\n    // Withdraw Shit tokens from STAKING.\n    function leaveStaking(uint256 _amount) public {\n        PoolInfo storage pool = poolInfo[0];\n        UserInfo storage user = userInfo[0][msg.sender];\n        require(user.amount >= _amount, \"withdraw: not good\");\n        updatePool(0);\n        uint256 pending = user.amount.mul(pool.accShitPerShare).div(1e12).sub(user.rewardDebt);\n        if(pending > 0) {\n            safeShitTransfer(msg.sender, pending);\n        }\n        if(_amount > 0) {\n            user.amount = user.amount.sub(_amount);\n            pool.lpToken.safeTransfer(address(msg.sender), _amount);\n        }\n        user.rewardDebt = user.amount.mul(pool.accShitPerShare).div(1e12);\n\n        foam.burn(msg.sender, _amount);\n        emit Withdraw(msg.sender, 0, _amount);\n    }\n\n    // Withdraw without caring about rewards. EMERGENCY ONLY.\n    function emergencyWithdraw(uint256 _pid) public {\n        PoolInfo storage pool = poolInfo[_pid];\n        UserInfo storage user = userInfo[_pid][msg.sender];\n        pool.lpToken.safeTransfer(address(msg.sender), user.amount);\n        emit EmergencyWithdraw(msg.sender, _pid, user.amount);\n        user.amount = 0;\n        user.rewardDebt = 0;\n    }\n\n    // Safe Shit transfer function, just in case if rounding error causes pool to not have enough Shits.\n    function safeShitTransfer(address _to, uint256 _amount) internal {\n        foam.safeShitTransfer(_to, _amount);\n    }\n\n    // Update dev address by the previous dev.\n    function dev(address _devaddr) public {\n        require(msg.sender == devaddr, \"dev: wut?\");\n        devaddr = _devaddr;\n    }\n}\n",
  "sourcePath": "/Users/ludovicpaguet/Desktop/Shitswap/pancake-farm/contracts/MasterChef.sol",
  "compiler": {
    "name": "solc",
    "version": "0.6.12+commit.27d51765.Emscripten.clang"
  },
  "schemaVersion": "3.4.1",
  "updatedAt": "2021-05-11T07:53:18.625Z",
  "devdoc": {
    "kind": "dev",
    "methods": {
      "owner()": {
        "details": "Returns the address of the current owner."
      },
      "renounceOwnership()": {
        "details": "Leaves the contract without owner. It will not be possible to call `onlyOwner` functions anymore. Can only be called by the current owner. NOTE: Renouncing ownership will leave the contract without an owner, thereby removing any functionality that is only available to the owner."
      },
      "transferOwnership(address)": {
        "details": "Transfers ownership of the contract to a new account (`newOwner`). Can only be called by the current owner."
      }
    },
    "version": 1
  },
  "userdoc": {
    "kind": "user",
    "methods": {},
    "version": 1
  }
}