{
  "contractName": "ShitVoterProxy",
  "abi": [
    {
      "inputs": [],
      "stateMutability": "nonpayable",
      "type": "constructor"
    },
    {
      "inputs": [],
      "name": "votes",
      "outputs": [
        {
          "internalType": "address",
          "name": "",
          "type": "address"
        }
      ],
      "stateMutability": "view",
      "type": "function"
    },
    {
      "inputs": [],
      "name": "decimals",
      "outputs": [
        {
          "internalType": "uint8",
          "name": "",
          "type": "uint8"
        }
      ],
      "stateMutability": "pure",
      "type": "function"
    },
    {
      "inputs": [],
      "name": "name",
      "outputs": [
        {
          "internalType": "string",
          "name": "",
          "type": "string"
        }
      ],
      "stateMutability": "pure",
      "type": "function"
    },
    {
      "inputs": [],
      "name": "symbol",
      "outputs": [
        {
          "internalType": "string",
          "name": "",
          "type": "string"
        }
      ],
      "stateMutability": "pure",
      "type": "function"
    },
    {
      "inputs": [],
      "name": "totalSupply",
      "outputs": [
        {
          "internalType": "uint256",
          "name": "",
          "type": "uint256"
        }
      ],
      "stateMutability": "view",
      "type": "function"
    },
    {
      "inputs": [
        {
          "internalType": "address",
          "name": "_voter",
          "type": "address"
        }
      ],
      "name": "balanceOf",
      "outputs": [
        {
          "internalType": "uint256",
          "name": "",
          "type": "uint256"
        }
      ],
      "stateMutability": "view",
      "type": "function"
    }
  ],
  "bytecode": "0x608060405234801561001057600080fd5b50610313806100206000396000f3fe608060405234801561001057600080fd5b50600436106100625760003560e01c806306fdde031461006757806318160ddd146100e4578063313ce567146100fe57806370a082311461011c57806395d89b4114610142578063e168c3ec1461014a575b600080fd5b61006f61016e565b6040805160208082528351818301528351919283929083019185019080838360005b838110156100a9578181015183820152602001610091565b50505050905090810190601f1680156100d65780820380516001836020036101000a031916815260200191505b509250505060405180910390f35b6100ec610190565b60408051918252519081900360200190f35b61010661020f565b6040805160ff9092168252519081900360200190f35b6100ec6004803603602081101561013257600080fd5b50356001600160a01b0316610214565b61006f6102a8565b6101526102c6565b604080516001600160a01b039092168252519081900360200190f35b604080518082019091526008815267464f414d564f544560c01b602082015290565b6000729cf7bc57584b7998236eff51b98a168dcea9b06001600160a01b03166318160ddd6040518163ffffffff1660e01b815260040160206040518083038186803b1580156101de57600080fd5b505afa1580156101f2573d6000803e3d6000fd5b505050506040513d602081101561020857600080fd5b5051905090565b601290565b6000729cf7bc57584b7998236eff51b98a168dcea9b06001600160a01b03166370a08231836040518263ffffffff1660e01b815260040180826001600160a01b0316815260200191505060206040518083038186803b15801561027657600080fd5b505afa15801561028a573d6000803e3d6000fd5b505050506040513d60208110156102a057600080fd5b505192915050565b604080518082019091526004815263464f414d60e01b602082015290565b729cf7bc57584b7998236eff51b98a168dcea9b08156fea26469706673582212204616446f31733f18ecd5f2f5ea7b21377102ccc70f715b79ed584da8f16239a664736f6c634300060c0033",
  "immutableReferences": {},
  "source": "pragma solidity 0.6.12;\n\ninterface IBEP20 {\n    /**\n     * @dev Returns the amount of tokens in existence.\n     */\n    function totalSupply() external view returns (uint256);\n\n    /**\n     * @dev Returns the token decimals.\n     */\n    function decimals() external view returns (uint8);\n\n    /**\n     * @dev Returns the token symbol.\n     */\n    function symbol() external view returns (string memory);\n\n    /**\n     * @dev Returns the token name.\n     */\n    function name() external view returns (string memory);\n\n    /**\n     * @dev Returns the bep token owner.\n     */\n    function getOwner() external view returns (address);\n\n    /**\n     * @dev Returns the amount of tokens owned by `account`.\n     */\n    function balanceOf(address account) external view returns (uint256);\n\n    /**\n     * @dev Moves `amount` tokens from the caller's account to `recipient`.\n     *\n     * Returns a boolean value indicating whether the operation succeeded.\n     *\n     * Emits a {Transfer} event.\n     */\n    function transfer(address recipient, uint256 amount) external returns (bool);\n\n    /**\n     * @dev Returns the remaining number of tokens that `spender` will be\n     * allowed to spend on behalf of `owner` through {transferFrom}. This is\n     * zero by default.\n     *\n     * This value changes when {approve} or {transferFrom} are called.\n     */\n    function allowance(address _owner, address spender) external view returns (uint256);\n\n    /**\n     * @dev Sets `amount` as the allowance of `spender` over the caller's tokens.\n     *\n     * Returns a boolean value indicating whether the operation succeeded.\n     *\n     * IMPORTANT: Beware that changing an allowance with this method brings the risk\n     * that someone may use both the old and the new allowance by unfortunate\n     * transaction ordering. One possible solution to mitigate this race\n     * condition is to first reduce the spender's allowance to 0 and set the\n     * desired value afterwards:\n     * https://github.com/ethereum/EIPs/issues/20#issuecomment-263524729\n     *\n     * Emits an {Approval} event.\n     */\n    function approve(address spender, uint256 amount) external returns (bool);\n\n    /**\n     * @dev Moves `amount` tokens from `sender` to `recipient` using the\n     * allowance mechanism. `amount` is then deducted from the caller's\n     * allowance.\n     *\n     * Returns a boolean value indicating whether the operation succeeded.\n     *\n     * Emits a {Transfer} event.\n     */\n    function transferFrom(\n        address sender,\n        address recipient,\n        uint256 amount\n    ) external returns (bool);\n\n    /**\n     * @dev Emitted when `value` tokens are moved from one account (`from`) to\n     * another (`to`).\n     *\n     * Note that `value` may be zero.\n     */\n    event Transfer(address indexed from, address indexed to, uint256 value);\n\n    /**\n     * @dev Emitted when the allowance of a `spender` for an `owner` is set by\n     * a call to {approve}. `value` is the new allowance.\n     */\n    event Approval(address indexed owner, address indexed spender, uint256 value);\n}\n\n\ncontract ShitVoterProxy {\n    // FOAM\n    address public constant votes = 0x009cF7bC57584b7998236eff51b98A168DceA9B0;\n\n    function decimals() external pure returns (uint8) {\n        return uint8(18);\n    }\n\n    function name() external pure returns (string memory) {\n        return 'FOAMVOTE';\n    }\n\n    function symbol() external pure returns (string memory) {\n        return 'FOAM';\n    }\n\n    function totalSupply() external view returns (uint256) {\n        return IBEP20(votes).totalSupply();\n    }\n\n    function balanceOf(address _voter) external view returns (uint256) {\n        return IBEP20(votes).balanceOf(_voter);\n    }\n\n    constructor() public {}\n}",
  "sourcePath": "/Users/ludovicpaguet/Desktop/Shitswap/pancake-farm/contracts/libs/ShitVoteProxy.sol",
  "compiler": {
    "name": "solc",
    "version": "0.6.12+commit.27d51765.Emscripten.clang"
  },
  "schemaVersion": "3.4.1",
  "updatedAt": "2021-05-11T07:53:18.697Z",
  "devdoc": {
    "kind": "dev",
    "methods": {},
    "version": 1
  },
  "userdoc": {
    "kind": "user",
    "methods": {},
    "version": 1
  }
}